:100000000C9434000C943E000C943E000C943E0082
:100010000C943E000C943E000C943E000C943E0068
:100020000C943E000C943E000C943E000C943E0058
:100030000C943E000C943E000C943E000C943E0048
:100040000C943E000C943E000C943E000C943E0038
:100050000C943E000C943E000C943E000C943E0028
:100060000C943E000C943E0011241FBECFEFD8E04C
:10007000DEBFCDBF0E9469000C946E000C9400009E
:1000800094B121E030E001C0220F8A95EAF7292BD4
:1000900024B9089595B121E030E001C0220F8A957E
:1000A000EAF7292B25B9089595B121E030E001C088
:1000B000220F8A95EAF72095292325B9089584B55A
:1000C000826084BD8CE987BD16BC85B5856085BD21
:1000D00008950E945F0080E090E00895F894FFCFBB
:00000001FF
